Type       Start            End              # Pages          Attributes
BS_Code    0000000000000000-0000000000000FFF 0000000000000001 000000000000000F
Available  0000000000001000-000000000009FFFF 000000000000009F 000000000000000F
Available  0000000000100000-00000000007FFFFF 0000000000000700 000000000000000F
ACPI_NVS   0000000000800000-0000000000807FFF 0000000000000008 000000000000000F
Available  0000000000808000-000000000080AFFF 0000000000000003 000000000000000F
ACPI_NVS   000000000080B000-000000000080BFFF 0000000000000001 000000000000000F
Available  000000000080C000-000000000080FFFF 0000000000000004 000000000000000F
ACPI_NVS   0000000000810000-00000000008FFFFF 00000000000000F0 000000000000000F
BS_Data    0000000000900000-00000000014FFFFF 0000000000000C00 000000000000000F
Available  0000000001500000-00000000BBF35FFF 00000000000BAA36 000000000000000F
BS_Data    00000000BBF36000-00000000BBF55FFF 0000000000000020 000000000000000F
Available  00000000BBF56000-00000000BE4DCFFF 0000000000002587 000000000000000F
LoaderCode 00000000BE4DD000-00000000BE5BDFFF 00000000000000E1 000000000000000F
Available  00000000BE5BE000-00000000BE617FFF 000000000000005A 000000000000000F
BS_Data    00000000BE618000-00000000BE635FFF 000000000000001E 000000000000000F
Available  00000000BE636000-00000000BE64FFFF 000000000000001A 000000000000000F
BS_Data    00000000BE650000-00000000BEC87FFF 0000000000000638 000000000000000F
BS_Code    00000000BEC88000-00000000BECC5FFF 000000000000003E 000000000000000F
BS_Data    00000000BECC6000-00000000BECCAFFF 0000000000000005 000000000000000F
BS_Code    00000000BECCB000-00000000BED08FFF 000000000000003E 000000000000000F
BS_Data    00000000BED09000-00000000BED0DFFF 0000000000000005 000000000000000F
BS_Code    00000000BED0E000-00000000BED2EFFF 0000000000000021 000000000000000F
BS_Data    00000000BED2F000-00000000BED39FFF 000000000000000B 000000000000000F
BS_Code    00000000BED3A000-00000000BED4DFFF 0000000000000014 000000000000000F
BS_Data    00000000BED4E000-00000000BED4FFFF 0000000000000002 000000000000000F
BS_Code    00000000BED50000-00000000BED63FFF 0000000000000014 000000000000000F
BS_Data    00000000BED64000-00000000BED68FFF 0000000000000005 000000000000000F
BS_Code    00000000BED69000-00000000BED98FFF 0000000000000030 000000000000000F
BS_Data    00000000BED99000-00000000BEDA2FFF 000000000000000A 000000000000000F
BS_Code    00000000BEDA3000-00000000BEDC4FFF 0000000000000022 000000000000000F
BS_Data    00000000BEDC5000-00000000BEDC5FFF 0000000000000001 000000000000000F
BS_Code    00000000BEDC6000-00000000BEDC8FFF 0000000000000003 000000000000000F
BS_Data    00000000BEDC9000-00000000BEDCBFFF 0000000000000003 000000000000000F
BS_Code    00000000BEDCC000-00000000BEDF7FFF 000000000000002C 000000000000000F
BS_Data    00000000BEDF8000-00000000BEDF8FFF 0000000000000001 000000000000000F
BS_Code    00000000BEDF9000-00000000BEDFFFFF 0000000000000007 000000000000000F
BS_Data    00000000BEE00000-00000000BEFFFFFF 0000000000000200 000000000000000F
BS_Code    00000000BF000000-00000000BF00DFFF 000000000000000E 000000000000000F
BS_Data    00000000BF00E000-00000000BF015FFF 0000000000000008 000000000000000F
BS_Code    00000000BF016000-00000000BF021FFF 000000000000000C 000000000000000F
BS_Data    00000000BF022000-00000000BF025FFF 0000000000000004 000000000000000F
BS_Code    00000000BF026000-00000000BF048FFF 0000000000000023 000000000000000F
BS_Data    00000000BF049000-00000000BF049FFF 0000000000000001 000000000000000F
BS_Code    00000000BF04A000-00000000BF087FFF 000000000000003E 000000000000000F
BS_Data    00000000BF088000-00000000BF08CFFF 0000000000000005 000000000000000F
BS_Code    00000000BF08D000-00000000BF08FFFF 0000000000000003 000000000000000F
BS_Data    00000000BF090000-00000000BF092FFF 0000000000000003 000000000000000F
BS_Code    00000000BF093000-00000000BF09EFFF 000000000000000C 000000000000000F
BS_Data    00000000BF09F000-00000000BF0A4FFF 0000000000000006 000000000000000F
BS_Code    00000000BF0A5000-00000000BF0B1FFF 000000000000000D 000000000000000F
BS_Data    00000000BF0B2000-00000000BF0B6FFF 0000000000000005 000000000000000F
BS_Code    00000000BF0B7000-00000000BF0CFFFF 0000000000000019 000000000000000F
BS_Data    00000000BF0D0000-00000000BF0D1FFF 0000000000000002 000000000000000F
BS_Code    00000000BF0D2000-00000000BF0F5FFF 0000000000000024 000000000000000F
BS_Data    00000000BF0F6000-00000000BF0F7FFF 0000000000000002 000000000000000F
BS_Code    00000000BF0F8000-00000000BF0FCFFF 0000000000000005 000000000000000F
BS_Data    00000000BF0FD000-00000000BF101FFF 0000000000000005 000000000000000F
BS_Code    00000000BF102000-00000000BF117FFF 0000000000000016 000000000000000F
BS_Data    00000000BF118000-00000000BF120FFF 0000000000000009 000000000000000F
BS_Code    00000000BF121000-00000000BF143FFF 0000000000000023 000000000000000F
BS_Data    00000000BF144000-00000000BF145FFF 0000000000000002 000000000000000F
BS_Code    00000000BF146000-00000000BF153FFF 000000000000000E 000000000000000F
BS_Data    00000000BF154000-00000000BF154FFF 0000000000000001 000000000000000F
BS_Code    00000000BF155000-00000000BF156FFF 0000000000000002 000000000000000F
BS_Data    00000000BF157000-00000000BF158FFF 0000000000000002 000000000000000F
BS_Code    00000000BF159000-00000000BF15AFFF 0000000000000002 000000000000000F
BS_Data    00000000BF15B000-00000000BF15BFFF 0000000000000001 000000000000000F
BS_Code    00000000BF15C000-00000000BF15EFFF 0000000000000003 000000000000000F
BS_Data    00000000BF15F000-00000000BF161FFF 0000000000000003 000000000000000F
BS_Code    00000000BF162000-00000000BF166FFF 0000000000000005 000000000000000F
BS_Data    00000000BF167000-00000000BF167FFF 0000000000000001 000000000000000F
BS_Code    00000000BF168000-00000000BF169FFF 0000000000000002 000000000000000F
BS_Data    00000000BF16A000-00000000BF16BFFF 0000000000000002 000000000000000F
BS_Code    00000000BF16C000-00000000BF17FFFF 0000000000000014 000000000000000F
BS_Data    00000000BF180000-00000000BF18BFFF 000000000000000C 000000000000000F
BS_Code    00000000BF18C000-00000000BF191FFF 0000000000000006 000000000000000F
BS_Data    00000000BF192000-00000000BF591FFF 0000000000000400 000000000000000F
BS_Code    00000000BF592000-00000000BF597FFF 0000000000000006 000000000000000F
BS_Data    00000000BF598000-00000000BF598FFF 0000000000000001 000000000000000F
BS_Code    00000000BF599000-00000000BF599FFF 0000000000000001 000000000000000F
BS_Data    00000000BF59A000-00000000BF59DFFF 0000000000000004 000000000000000F
BS_Code    00000000BF59E000-00000000BF5B6FFF 0000000000000019 000000000000000F
BS_Data    00000000BF5B7000-00000000BF8EEFFF 0000000000000338 000000000000000F
RT_Data    00000000BF8EF000-00000000BF9EEFFF 0000000000000100 800000000000000F
RT_Code    00000000BF9EF000-00000000BFAEEFFF 0000000000000100 800000000000000F
Reserved   00000000BFAEF000-00000000BFB6EFFF 0000000000000080 000000000000000F
ACPI_Recl  00000000BFB6F000-00000000BFB7EFFF 0000000000000010 000000000000000F
ACPI_NVS   00000000BFB7F000-00000000BFBFEFFF 0000000000000080 000000000000000F
BS_Data    00000000BFBFF000-00000000BFDFFFFF 0000000000000201 000000000000000F
Available  00000000BFE00000-00000000BFE7DFFF 000000000000007E 000000000000000F
BS_Data    00000000BFE7E000-00000000BFE9DFFF 0000000000000020 000000000000000F
BS_Code    00000000BFE9E000-00000000BFEC3FFF 0000000000000026 000000000000000F
BS_Data    00000000BFEC4000-00000000BFECCFFF 0000000000000009 000000000000000F
BS_Code    00000000BFECD000-00000000BFEF3FFF 0000000000000027 000000000000000F
RT_Data    00000000BFEF4000-00000000BFF77FFF 0000000000000084 800000000000000F
ACPI_NVS   00000000BFF78000-00000000BFFFFFFF 0000000000000088 000000000000000F
Available  0000000100000000-000000013FFFFFFF 0000000000040000 000000000000000F
MMIO       00000000FFC00000-00000000FFFFFFFF 0000000000000400 8000000000000001
 
  Reserved  :            128 Pages (524,288 Bytes)
  LoaderCode:            225 Pages (921,600 Bytes)
  LoaderData:              0 Pages (0 Bytes)
  BS_Code   :            771 Pages (3,158,016 Bytes)
  BS_Data   :          7,762 Pages (31,793,152 Bytes)
  RT_Code   :            256 Pages (1,048,576 Bytes)
  RT_Data   :            388 Pages (1,589,248 Bytes)
  ACPI_Recl :             16 Pages (65,536 Bytes)
  ACPI_NVS  :            513 Pages (2,101,248 Bytes)
  MMIO      :          1,024 Pages (4,194,304 Bytes)
  MMIO_Port :              0 Pages (0 Bytes)
  PalCode   :              0 Pages (0 Bytes)
  Available :      1,038,421 Pages (4,253,372,416 Bytes)
  Persistent:              0 Pages (0 Bytes)
              -------------- 
Total Memory:          4,095 MB (4,294,049,792 Bytes)
